:040000000DEF00F010
:0400080030EF2AF0BB
:06001800FF00AAEF2AF030
:1040000000905600000000DC5300065B00DE540008
:10401000205900000000000000000000E4560000ED
:104020000000AA4E00000000000000000000000098
:104030000000000000000000000000000000000080
:10404000000000000000000000000000000000E68A
:104050005900165B009C51000000000000000000A9
:10406000008C59000000000000004058001C5B005C
:10407000000000000000CE5A000000000001020312
:0D40800004050607080240003F0050010043
:10408E00710E075C020E0858D8B050EF20F052EFB8
:10409E0020F060EF20F003C5D9F404C5DAF4E90E80
:1040AE00DF6E05C5D9F406C5DAF4FF0EDF6EBDEF7F
:1040BE0021F0710E075C020E0858D8A069EF20F0AF
:1040CE006BEF20F084EF20F0E20E075C040E085830
:1040DE00D8B074EF20F076EF20F084EF20F003C517
:1040EE00D9F404C5DAF4F20EDF6E05C5D9F406C5AF
:1040FE00DAF4FE0EDF6EBDEF21F0E20E075C040E69
:10410E000858D8A08DEF20F08FEF20F0A8EF20F008
:10411E00530E075C070E0858D8B098EF20F09AEFB0
:10412E0020F0A8EF20F003C5D9F404C5DAF4F50E9B
:10413E00DF6E05C5D9F406C5DAF4FE0EDF6EBDEFEF
:10414E0021F0530E075C070E0858D8A0B1EF20F0EF
:10415E00B3EF20F0CCEF20F0C40E075C090E085828
:10416E00D8B0BCEF20F0BEEF20F0CCEF20F003C5AE
:10417E00D9F404C5DAF4F60EDF6E05C5D9F406C51A
:10418E00DAF4FD0EDF6EBDEF21F0C40E075C090EF2
:10419E000858D8A0D5EF20F0D7EF20F0F0EF20F0A0
:1041AE00A60E075C0E0E0858D8B0E0EF20F0E2EF36
:1041BE0020F0F0EF20F003C5D9F404C5DAF4F70EC1
:1041CE00DF6E05C5D9F406C5DAF4FC0EDF6EBDEF61
:1041DE0021F0A60E075C0E0E0858D8A0F9EF20F0BD
:1041EE00FBEF20F014EF21F0880E075C130E085839
:1041FE00D8B004EF21F006EF21F014EF21F003C543
:10420E00D9F404C5DAF4FA0EDF6E05C5D9F406C585
:10421E00DAF4FC0EDF6EBDEF21F0880E075C130E94
:10422E000858D8A01DEF21F01FEF21F038EF21F034
:10423E006A0E075C180E0858D8B028EF21F02AEF46
:10424E0021F038EF21F003C5D9F404C5DAF4FB0EE2
:10425E00DF6E05C5D9F406C5DAF4FB0EDF6EBDEFD1
:10426E0021F06A0E075C180E0858D8A041EF21F015
:10427E0043EF21F05CEF21F04C0E075C1D0E085849
:10428E00D8B04CEF21F04EEF21F05CEF21F003C5DA
:10429E00D9F404C5DAF4FC0EDF6E05C5D9F406C5F3
:1042AE00DAF4F80EDF6EBDEF21F04C0E075C1D0E3A
:1042BE000858D8A065EF21F067EF21F080EF21F0CC
:1042CE002E0E075C220E0858D8B070EF21F072EF58
:1042DE0021F080EF21F003C5D9F404C5DAF4FE0E07
:1042EE00DF6E05C5D9F406C5DAF4F70EDF6EBDEF45
:1042FE0021F02E0E075C220E0858D8A089EF21F06F
:10430E008BEF21F0A4EF21F01C0E075C250E085850
:10431E00D8B094EF21F096EF21F0A4EF21F003C571
:10432E00D9F404C5DAF4FF0EDF6E05C5D9F406C55F
:10433E00DAF4F50EDF6EBDEF21F01C0E075C250ED4
:10434E000858D8A0ADEF21F0AFEF21F0BDEF21F06E
:10435E0003C5D9F404C5DAF4FF0EDF6E05C5D9F432
:10436E0006C5DAF4E90EDF6EBDEF21F01200550E30
:10437E00F66E400EF76E000EF86E02D8D5EF21F0F5
:10438E000500FA6E0900F550FD6E0900F550FE6E3F
:10439E000900F550FF6EFA50000E1200A00E00D06C
:1043AE00E82EFDD7BE92A00E00D0E82EFDD7610EEE
:1043BE00F66E400EF76E000EF86E02D8F5EF21F095
:1043CE000500FA6E0900F550FD6E0900F550FE6EFF
:1043DE000900F550FF6EFA50400E1200610EF66E97
:1043EE00400EF76E000EF86E02D80CEF22F00500AC
:1043FE00FA6E0900F550FD6E0900F550FE6E0900CB
:10440E00F550FF6EFA50EE0E12000B0E056E620E98
:10441E00E82EFED7052EFCD700D0BE82A00E00D00F
:10442E00E82EFDD7520EF66E400EF76E000EF86EA9
:10443E0002D82FEF22F00500FA6E0900F550FD6E3E
:10444E000900F550FE6E0900F550FF6EFA5012008D
:10445E00A00E00D0E82EFDD7550EF66E400EF76E6C
:10446E00000EF86E02D84AEF22F00500FA6E09002F
:10447E00F550FD6E0900F550FE6E0900F550FF6E09
:10448E00FA50000E1200A00E00D0E82EFDD7BE92FC
:10449E00A00E00D0E82EFDD7610EF66E400EF76E20
:1044AE00000EF86E02D86AEF22F00500FA6E0900CF
:1044BE00F550FD6E0900F550FE6E0900F550FF6EC9
:1044CE00FA50000E1200610EF66E400EF76E000EE0
:1044DE00F86E02D881EF22F00500FA6E0900F55051
:1044EE00FD6E0900F550FE6E0900F550FF6EFA5094
:1044FE00FB0E12000B0E056E620EE82EFED7052E79
:10450E00FCD700D0BE82A00E00D0E82EFDD7520EF2
:10451E00F66E400EF76E000EF86E02D8A4EF22F083
:10452E000500FA6E0900F550FD6E0900F550FE6E9D
:10453E000900F550FF6EFA501200A00E00D0E82EC2
:10454E00FDD7550EF66E400EF76E000EF86E02D8C1
:10455E00BFEF22F00500FA6E0900F550FD6E09005E
:10456E00F550FE6E0900F550FF6EFA50000E120067
:10457E00050E066E0F0E056EF10EE82EFED7052EF9
:10458E00FCD7062EFAD700F0BE92A00E00D0E82E71
:10459E00FDD7610EF66E400EF76E000EF86E02D865
:1045AE00E7EF22F00500FA6E0900F550FD6E0900E6
:1045BE00F550FE6E0900F550FF6EFA50100E120007
:1045CE00610EF66E400EF76E000EF86E02D8FEEF1C
:1045DE0022F00500FA6E0900F550FD6E0900F55047
:1045EE00FE6E0900F550FF6EFA50FB0E12000B0E18
:1045FE00056E620EE82EFED7052EFCD700D0BE82C9
:10460E00A00E00D0E82EFDD7520EF66E400EF76EBD
:10461E00000EF86E02D821EF23F00500FA6E0900A5
:10462E00F550FD6E0900F550FE6E0900F550FF6E57
:10463E00FA501200120020EE04F00450D926055054
:10464E00DA22DF50086E20EE04F00650D92607500D
:10465E00DA2208460846DF500818C30B0818DF6E2A
:10466E0020EE04F00450D9260550DA22DFB842EFCE
:10467E0023F046EF23F0086A082A47EF23F0086A72
:10468E0020EE04F00650D9260750DA22DF50081823
:10469E00FE0B0818DF6E20EE04F00450D9260550EC
:1046AE00DA22DFBA5DEF23F061EF23F0086A082A01
:1046BE0062EF23F0086A20EE04F00650D926075068
:1046CE00DA220846DF500818FD0B0818DF6E20EEC0
:1046DE0004F00450D9260550DA22DFBC79EF23F01E
:1046EE007DEF23F0086A082A7EEF23F0086A20EE99
:1046FE0004F00650D9260750DA2208320832DF506D
:10470E0008187F0B0818DF6E20EE04F00450D9262F
:10471E000550DA22DFBE96EF23F09AEF23F0086AF7
:10472E00082A9BEF23F0086A20EE04F00650D926E3
:10473E000750DA22083A08460846DF500818BF0B21
:10474E000818DF6E20EE01F00450D9260550DA224B
:10475E00DF50086E070E081608500A6E0B6A0C6AB8
:10476E000D6A0CC50DF50BC50CF50AC50BF50A6ADD
:10477E0004C5D9F405C5DAF4DF50086E08500A12E4
:10478E0020EE04F00650D9260750DA22DFA0D2EF31
:10479E0023F0D4EF23F015EF24F0050ED8900A364F
:1047AE000B360C360D36E82ED5EF23F020EE03F047
:1047BE000450D9260550DA22DF50086E1F0E081657
:1047CE0008500A120CC50DF50BC50CF50AC50BF5F4
:1047DE000A6A20EE02F00450D9260550DA22DF5084
:1047EE00086E08500A12050ED8900A360B360C3693
:1047FE000D36E82EFBEF23F020EE01F00450D92603
:10480E000550DA22DF50086ED8900832D890083260
:10481E00D89008321F0E081608500A1206C5D9F491
:10482E0007C5DAF40AC5DEF40BC5DEF40CC5DEF4FA
:10483E000DC5DEF4000E0E6E3AEF24F00E50042479
:10484E00086E000E0520096E080E0824D96E000EA3
:10485E000920DA6E860E0E24E16EE26A050EE22261
:10486E00DFC4E7F40E2A20EE04F00650D9260750D6
:10487E00DA22DF30E8320F0B00EC2DF0086E085014
:10488E000E5CD8A04DEF24F04FEF24F025EF24F06E
:10489E0020EE05F00650D9260750DA22860EDE6E7F
:1048AE00050EDD6E120011C5D9F412C5DAF4DEC4A0
:1048BE0018F5DEC419F5DEC41AF5DEC41BF520EEBC
:1048CE0004F01150D9261250DA22DFA071EF24F035
:1048DE0073EF24F0ACEF24F020EE01F00F50D92648
:1048EE001050DA221838E842F80BF80BDF6E050E7E
:1048FE00136ED8901B321A3219321832132E80EFE3
:10490E0024F020EE02F00F50D9261050DA2218C5EE
:10491E00DFF419C518F51AC519F51BC51AF51B6A6A
:10492E0020EE03F00F50D9261050DA2218501F0B2C
:10493E00DF6E050E136ED8901B321A3219321832F2
:10494E00132EA2EF24F0C1EF24F020EE01F00F5051
:10495E00D9261050DA22DF6A20EE02F00F50D92647
:10496E001050DA22DF6A20EE03F00F50D9261050D5
:10497E00DA22DF6A0FC5D9F410C5DAF418C5DFF4F0
:10498E0019C518F51AC519F51BC51AF51B6A18C5F0
:10499E0013F5070E131620EE01F00F50D926105006
:1049AE00DA221350DF1220EE04F00F50D9261050E9
:1049BE00DA2210EE04F01150E1261250E222E73016
:1049CE00E8320F0B136E10EE04F01150E126125068
:1049DE00E222E7BCF5EF24F0F9EF24F0800E146E1E
:1049EE00FAEF24F0146A800E141610EE04F0115033
:1049FE00E1261250E222E7BE07EF25F00BEF25F07D
:104A0E00400E156E0CEF25F0156A400E151610EEC1
:104A1E0004F01150E1261250E222E7B219EF25F010
:104A2E001DEF25F0200E166E1EEF25F0166A200ED5
:104A3E00161610EE04F01150E1261250E222E7B0E5
:104A4E002BEF25F02FEF25F0176A172A30EF25F000
:104A5E00176A1738F00B100B1610151014101310D0
:104A6E00DF6E20EE04F01150D9261250DA22DFB29A
:104A7E0043EF25F045EF25F066EF25F0080E0F24E5
:104A8E00046E000E1020056E20EE05F01150D92692
:104A9E001250DA22DEC406F5DDC407F520EE04F06E
:104AAE001150D9261250DA22DF30E8320F0B00EC0B
:104ABE002DF0136E1350086E096A9BEC2BF012004A
:104ACE00A4EC2CF0060EEEEC29F09C0E036E5A0EA2
:104ADE00046E000E056E67EC2DF08EEC2DF0D68E6A
:104AEE00BEEC21F0540E036E050E046E51EC2CF04C
:104AFE00220EF66E400EF76E000EF86E02D895EF8F
:104B0E0025F00500FA6E0900F550FD6E0900F5500E
:104B1E00FE6E0900F550FF6EFA5012000009D8B46F
:104B2E009BEF25F09DEF25F022EF26F08E0E196EED
:104B3E00050E1A6E1C0EF66E400EF76E000EF86E17
:104B4E0002D8B7EF25F00500FA6E0900F550FD6E9C
:104B5E000900F550FE6E0900F550FF6EFA50120076
:104B6E000009D8B4BDEF25F0BFEF25F022EF26F0F7
:104B7E00910E05018E1909E1030E8F1990119111F5
:104B8E00D8A4CCEF25F0CEEF25F0F6EF25F093C5A7
:104B9E00D9F494C5DAF4DF503E6E3E509C6F9D6B97
:104BAE00000E1D6E000E1C6E000E1F6E1E68000E97
:104BBE00216E000E206E270E236E100E226E9CC5E7
:104BCE0024F59DC525F5DAEC27F01CC558F51DC555
:104BDE0059F5500E036E050E046E51EC2CF00501C6
:104BEE0020EE01F09A51D9269B51DA2258C5DFF4F6
:104BFE0020EE02F09A51D9269B51DA225950DF6EDF
:104C0E000D0EF66E400EF76E000EF86E02D822EF05
:104C1E0026F00500FA6E0900F550FD6E0900F550FC
:104C2E00FE6E0900F550FF6EFA50950E1C6E050EC5
:104C3E001D6E000E120050C503F551C504F552C588
:104C4E0005F553C506F5E5EC2CF0870E045C930EC6
:104C5E000558030E0658D8A037EF26F039EF26F088
:104C6E003DEF26F0000E596E000E586E5D0E036E6F
:104C7E00050E046E5C0E056E050E066E58C507F524
:104C8E0059C508F547EC20F05CC505F55D506DEC97
:104C9E0026F054C503F555C504F556C505F557C59B
:104CAE0006F5E5EC2CF006500DE1400E035C420ECD
:104CBE0004580F0E0558D8A067EF26F069EF26F0BE
:104CCE0050EF26F079EF25F00DEF00F0076E550E40
:104CDE00F66E400EF76E000EF86E02D885EF26F0D7
:104CEE000500FA6E0900F550FD6E0900F550FE6ED6
:104CFE000900F550FF6EFA50000E1200A00E00D003
:104D0E00E82EFDD7BE92A00E00D0E82EFDD7610E84
:104D1E00F66E400EF76E000EF86E02D8A5EF26F076
:104D2E000500FA6E0900F550FD6E0900F550FE6E95
:104D3E000900F550FF6EFA50000E1200610EF66E6D
:104D4E00400EF76E000EF86E02D8BCEF26F005008E
:104D5E00FA6E0900F550FD6E0900F550FE6E090061
:104D6E00F550FF6EFA50075012000B0E066E620ED3
:104D7E00E82EFED7062EFCD700D0BE82A00E00D0A5
:104D8E00E82EFDD7520EF66E400EF76E000EF86E40
:104D9E0002D8DFEF26F00500FA6E0900F550FD6E21
:104DAE000900F550FE6E0900F550FF6EFA50120024
:104DBE00A00E00D0E82EFDD7550EF66E400EF76E03
:104DCE00000EF86E02D8FAEF26F00500FA6E090012
:104DDE00F550FD6E0900F550FE6E0900F550FF6EA0
:104DEE00FA50000E1200A00E00D0E82EFDD7BE9293
:104DFE00A00E00D0E82EFDD7610EF66E400EF76EB7
:104E0E00000EF86E02D81AEF27F00500FA6E0900B0
:104E1E00F550FD6E0900F550FE6E0900F550FF6E5F
:104E2E00FA50100E1200610EF66E400EF76E000E66
:104E3E00F86E02D831EF27F00500FA6E0900F55032
:104E4E00FD6E0900F550FE6E0900F550FF6EFA502A
:104E5E00055012000B0E066E620EE82EFED7062EC1
:104E6E00FCD700D0BE82A00E00D0E82EFDD7520E89
:104E7E00F66E400EF76E000EF86E02D854EF27F065
:104E8E000500FA6E0900F550FD6E0900F550FE6E34
:104E9E000900F550FF6EFA5012001200000E0C6E53
:104EAE00000E066E000E0A6E000E0B6E000E0C6EDD
:104EBE000C50020D5A0EF324D96E050EF420DA6E44
:104ECE00DF50096E095019EC2DF0076E07A072EF36
:104EDE0027F074EF27F0CFEF27F00950D6EC2CF027
:104EEE000A6E07A67DEF27F07FEF27F083EF27F0FE
:104EFE000AC508F5CDEF27F009500C0D550EF32419
:104F0E00D96E010EF420DA6EDF501F0B0B6E0C50B3
:104F1E00020D5B0EF324D96E050EF420DA6EDE5010
:104F2E000B5CD8B09DEF27F09FEF27F0AFEF27F087
:104F3E000C50020D5B0EF324D96E050EF420DA6EC2
:104F4E00DF50056E05500B5C0A24086ECDEF27F07E
:104F5E000C50020D5B0EF324D96E050EF420DA6EA2
:104F6E000B50DE5CD8B0BEEF27F0C0EF27F07FEF1E
:104F7E0027F00C50020D5B0EF324D96E050EF420B3
:104F8E00DA6EDF50056E05500B5C086E0850062673
:104F9E000C2A0C50D8B4D6EF27F0D8EF27F05FEFDD
:104FAE0027F0065012001C50245C1D502558D8B016
:104FBE00E3EF27F0E5EF27F0EBEF27F020C51CF528
:104FCE0021C51DF55AEF28F024501E5C25501F58A0
:104FDE00D8B0F4EF27F0F6EF27F0FCEF27F022C55C
:104FEE001CF523C51DF55AEF28F01CC536F51DC559
:104FFE0037F5386A396A1EC526F51FC527F5286AA2
:10500E00296A20C53AF521C53BF53C6A3D6A22C5A1
:10501E002AF523C52BF52C6A2D6A24C52EF525C538
:10502E002FF5306A316A36502E5C036E37502F588A
:10503E00046E38503058056E39503158066E3A505D
:10504E002A5C076E3B502B58086E3C502C58096E4C
:10505E003D502D580A6EE0EC2AF003C50FF504C53D
:10506E0010F505C511F506C512F53650265C136E02
:10507E0037502758146E38502858156E3950295805
:10508E00166E9CEC29F03A500F24326E3B501020D5
:10509E00336E3C501120346E3D501220356E32C5A9
:1050AE001CF533C51DF51200186E000E146E0F5050
:1050BE0019EC2DF0176E17A067EF28F069EF28F0A6
:1050CE00CCEF28F00F500C0D580EF324D96E010EB4
:1050DE00F420DA6EDEC415F5DDC416F51550161083
:1050EE00D8B47CEF28F07EEF28F0CCEF28F015C571
:1050FE0004F516C505F510C506F511C507F522EC24
:10510E0023F00F500C0D510EF324D96E010EF42026
:10511E00DA6E000EDB801850020D5B0EF324D96E92
:10512E00050EF420DA6EDF2A0F50D6EC2CF0126E3C
:10513E001850020D5B0EF324D96E050EF420DA6EB4
:10514E001250DE5CD8A0AEEF28F0B0EF28F0B9EF29
:10515E0028F01850020D5B0EF324D96E050EF420C4
:10516E00DA6EDF6A17A6BEEF28F0C0EF28F0CAEF9E
:10517E0028F00F500C0D540EF324D96E010EF420AE
:10518E00DA6EF70EDF16010E146E14501200046E56
:10519E00000191BFD5EF28F0D7EF28F039EF29F0B5
:1051AE000450050D850EF324F66E400EF420F76EB6
:1051BE00F86A000EF8220800F5C491F00450050DAF
:1051CE00010EF326000EF422850EF324F66E400E29
:1051DE00F420F76EF86A000EF8220800F5C492F07B
:1051EE000450050D020EF326000EF422850EF32454
:1051FE00F66E400EF420F76EF86A000EF8220800E4
:10520E00F5500309936F000E996F0450050D030EB0
:10521E00F326000EF422850EF324F66E400EF420D3
:10522E00F76EF86A000EF8220800F5C496F00450E6
:10523E00050D040EF326000EF422850EF324F66EF1
:10524E00400EF420F76EF86A000EF8220800F5C43E
:10525E0003F5034603460346C7500318F70B03181E
:10526E00C76E918F1200020EBE6E000EBF6E000E44
:10527E00C06EFD0EC66EFD0EC76EFE0EC86E080E1B
:10528E00CA6EFD0E0401006FF00E086FFE0E106F59
:10529E00000E016F000E096F000E116F000E216FD0
:1052AE00000E0201896F000E886F000E876F000ED0
:1052BE00866F000E0401026F000E0A6F000E126F51
:1052CE00FD0E036FF00E0B6FFE0E136FFD0E046FCF
:1052DE00F00E0C6FFE0E146F080E246F0A0E0201F4
:1052EE006E6F080E3D6F350E116F460E0A6F0B0E68
:1052FE006D6F340E0C6F000E0401056F000E066FFD
:10530E00000E076F000E0D6F000E0E6F000E0F6F6A
:10531E00000E156F000E166F000E176F000E256F24
:10532E00000E266F000E276F1200000E176E000E75
:10533E00186E000E196E000E1A6E13501410151002
:10534E001610D8B4ADEF29F0AFEF29F0E5EF29F044
:10535E00010E1B6EB9EF29F0D890133614361536A0
:10536E0016361B2A16AEBEEF29F0C0EF29F0B3EFAA
:10537E0029F0D8901736183619361A3613500F5C96
:10538E00145010581550115816501258D8A0D2EF6C
:10539E0029F0D4EF29F0DDEF29F013500F5E1450F1
:1053AE00105A1550115A1650125A1780D89016329C
:1053BE001532143213321B2EC0EF29F017C50FF51C
:1053CE0018C510F519C511F51AC512F51200046E9F
:1053DE00000E036E83EC2DF0040AD8B4F9EF29F019
:1053EE00FBEF29F00CEF2AF00404D8B401EF2AF0F9
:1053FE0003EF2AF00CEF2AF0040E0418D8A40AEFDB
:10540E002AF00CEF2AF02CEF2AF0010103510418B8
:10541E00F80B0418036F1FEF2AF01DA919EF2AF0DD
:10542E001BEF2AF01FEF2AF0020E036E2EEF2AF06A
:10543E000239E832070B0418D8A428EF2AF02AEF15
:10544E002AF014EF2AF02EEF2AF0010E036E03500D
:10545E001200FAC401F5FBC402F59EAE39EF2AF034
:10546E003BEF2AF046EF2AF0AEAE40EF2AF042EFC5
:10547E002AF046EF2AF092EC2DF06AEF2AF0A1AE58
:10548E004BEF2AF04DEF2AF058EF2AF0B1AE52EF63
:10549E002AF054EF2AF058EF2AF002EC2CF06AEFC3
:1054AE002AF09EAC5DEF2AF05FEF2AF06AEF2AF049
:1054BE00AEAC64EF2AF066EF2AF06AEF2AF025EC24
:1054CE002DF06AEF2AF002C5FBF401C5FAF41100C3
:1054DE00216E1CC507F51DC508F5215015EC2BF0E6
:1054EE001E6E1E50D8A47EEF2AF080EF2AF0A9EF90
:1054FE002AF021500C0D580EF324D96E010EF42013
:10550E00DA6EDEC41FF5DDC420F51F502010D8B4AE
:10551E0093EF2AF095EF2AF0A9EF2AF01FC50FF5A9
:10552E0020C510F51CC511F51DC512F55AEC24F059
:10553E0021500C0D510EF324D96E010EF420DA6EAB
:10554E00030EDF121200C00EF66E5A0EF76E000E2C
:10555E00F86E01EE8EF110EE0EF00900F5C4EEF4C9
:10556E00E550E150FAE1100EF66E5B0EF76E000E8E
:10557E00F86E01EE58F110EE06F00900F5C4EEF4E7
:10558E00E550E150FAE101EE60F12E0EEE6AE8060A
:10559E00FDE101EE3FF1190EEE6AE806FDE10401B0
:1055AE00080E5D6F000E5E6F000E5F6F000167EFFD
:1055BE0025F0000E0B6E000E0C6E000E0D6E000E22
:1055CE000E6E03A0EDEF2AF0EFEF2AF0F7EF2AF0C0
:1055DE0007500B2608500C2209500D220A500E229D
:1055EE00D8900736083609360A36D8900632053274
:1055FE00043203320350041005100610D8A40AEF2B
:10560E002BF00CEF2BF0E8EF2AF00BC503F50CC5D1
:10561E0004F50DC505F50EC506F512000A6E000E51
:10562E000B6E20EE04F00750D9260850DA22DFAEBA
:10563E0023EF2BF025EF2BF026EF2BF00B8220EE35
:10564E0004F00750D9260850DA22DF30E8320F0B6B
:10565E00096E080E096436EF2BF038EF2BF039EF98
:10566E002BF00B800A5090EC2CF00009D8A442EFDE
:10567E002BF044EF2BF046EF2BF0030E0B120B50DA
:10568E0012000101018F040E036F900E026F040EC3
:10569E00EEEC29F00009D8A457EF2BF059EF2BF0C0
:1056AE0071EF2BF0000E01014C6F380E4D6F970EFF
:1056BE00016F400E006F0297028944EC2DF030EC22
:1056CE002DF03AEC2DF03BEC2CF067EC2CF0060EA6
:1056DE00EEEC29F01200000E1C6E1C50020D5A0E3C
:1056EE00F324D96E050EF420DA6EDF500F6E19C555
:1056FE0010F51AC511F51C505BEC28F01B6E1B50F3
:10570E00D8B48CEF2BF08EEF2BF090EF2BF099EFAF
:10571E002BF01C2A1C50D8B497EF2BF099EF2BF0DE
:10572E0074EF2BF01B50120006C50DF507C50EF5D4
:10573E0004C50BF505C50CF5B5EF2BF00DC5D9F469
:10574E000EC5DAF4DF500A6E0D4A0E2A0BC5D9F4D7
:10575E000CC5DAF40AC5DFF40B4A0C2A0806D8A0E9
:10576E000906082806E10928D8A4C0EF2BF0C2EFDD
:10577E002BF0A5EF2BF01200D69AAF90D680000E2C
:10578E00036E000E046E000E056E7CEC2DF0B490D0
:10579E00D682000E036E000E046E000E056E75ECC2
:1057AE002DF0B890D684000E036E000E046E000E1F
:1057BE00056E6EEC2DF01200046E000E036E040EDC
:1057CE000460ECEF2BF0EEEF2BF000EF2CF004501A
:1057DE000C0D500EF324D96E010EF420DA6E010179
:1057EE00DFAEFCEF2BF0FEEF2BF000EF2CF0010EF6
:1057FE00036E03501200B19E4F500301196F4EC538
:10580E0018F33F5040104110D8B410EF2CF012EFA7
:10581E002CF01FEF2CF002D81FEF2CF00500FA6EC3
:10582E003F50FD6E4050FE6E4150FF6EFA5012001A
:10583E001200C10E0301196F800E186F500E1B6FF0
:10584E001951066E18514E6E06C54FF5220E036E97
:10585E005B0E046E000E056E67EC2DF0B19EA18EF0
:10586E00900E03011A6F120001018051E00B010925
:10587E00806F910E8C6F030E8D6F000E8E6F000E6B
:10588E008F6F9069070E916F000E926F400E936F9F
:10589E00808F120003500410D8B458EF2CF05AEF3A
:1058AE002CF066EF2CF003C5D9F404C5DAF460C50C
:1058BE00DEF461C5DEF462C5DEF463C5DEF412000B
:1058CE00000E036E0350020D5B0EF324D96E050E0F
:1058DE00F420DA6EDF6A032A0350D8B479EF2CF085
:1058EE007BEF2CF069EF2CF01200000E0001606FC0
:1058FE00000E616F000E626F000E636F000E646F1C
:10590E00000E656F000E666F000E676F000E686FFB
:10591E001200066E000E056E0650E3EC2BF0000929
:10592E00D8B49CEF2CF09EEF2CF0A2EF2CF006508A
:10593E000DEC2DF0056E05501200B5EC2CF03AEC86
:10594E0029F048EC2BF07CEC2CF0F3EC2CF020EC56
:10595E002CF058EC2DF0C3EC2BF01200600E000171
:10596E00AD6F000EAF6F000EB36F080EB16F000E6D
:10597E00B06F400EAC6F000E0401586F1200036E34
:10598E00010E00018F6F03C58EF0B3A0D1EF2CF086
:10599E00D3EF2CF0CCEF2CF000018D511200046EE1
:1059AE0004500C0D530EF324D96E010EF420DA6E52
:1059BE00DF50036E1F0E031603281200035005015D
:1059CE00605D036E04506159046E05506259056E98
:1059DE0006506359066E1200400E0001926F000EC3
:1059EE00936F000E996F3F0E966FC796020E916FD2
:1059FE001200036E7C0E0324F66EF76A400EF72239
:105A0E00F86A000EF8220800F5501200036E0350DB
:105A1E000C0D540EF324D96E010EF420DA6EDF5005
:105A2E00010B1200036E03500C0D540EF324D96EAD
:105A3E00010EF420DA6EDF50090B120001011DADCC
:105A4E002BEF2DF02DEF2DF02EEF2DF01D9DAE9C9A
:105A5E001200800E0101506F040E516F600E526FD6
:105A6E00070E536F1200000E01015C6F040E5D6F86
:105A7E00000E5E6F070E5F6F1200250E0101046FA0
:105A8E00250E056F580E066F000E076F1200E80EFA
:105A9E0005016027030E6123000E6223000E6323AF
:105AAE001200000E0001786F000E796F300EF06E4E
:105ABE0012000000000020760591020000207E05F5
:105ACE0003C53FF504C540F505C541F5120003C5F4
:105ADE0042F504C543F505C544F5120003C545F569
:105AEE0004C546F505C547F5120003C548F504C5BE
:105AFE0049F505C54AF5120001010239E832070BD6
:105B0E001200EC130100FFFF0001919F1200030130
:085B1E001A8F120012001200A0
:020000040030CA
:100000008CEFF7FF9FFFFFFFFFFFFFFFFFFFFFFFEB
:10001000FFFFFFFFFFFFFFFFFFFFFFFFFFFFFFFFF0
:03002000FFFFFFE0
:00000001FF
